{
  "_format": "hh-sol-artifact-1",
  "contractName": "GradeNFT",
  "sourceName": "contracts/GradeNFT.sol",
  "abi": [
    {
      "anonymous": false,
      "inputs": [
        {
          "indexed": false,
          "internalType": "uint256",
          "name": "gradesystemId",
          "type": "uint256"
        },
        {
          "indexed": false,
          "internalType": "address",
          "name": "teacher",
          "type": "address"
        },
        {
          "indexed": false,
          "internalType": "string",
          "name": "lesson",
          "type": "string"
        },
        {
          "indexed": false,
          "internalType": "string",
          "name": "student",
          "type": "string"
        },
        {
          "indexed": false,
          "internalType": "string",
          "name": "studentnumber",
          "type": "string"
        },
        {
          "indexed": false,
          "internalType": "string",
          "name": "grade",
          "type": "string"
        },
        {
          "indexed": false,
          "internalType": "uint256",
          "name": "issueDate",
          "type": "uint256"
        }
      ],
      "name": "GradeSystemIssued",
      "type": "event"
    },
    {
      "anonymous": false,
      "inputs": [
        {
          "indexed": false,
          "internalType": "uint256",
          "name": "gradesystemId",
          "type": "uint256"
        },
        {
          "indexed": false,
          "internalType": "address",
          "name": "from",
          "type": "address"
        },
        {
          "indexed": false,
          "internalType": "address",
          "name": "to",
          "type": "address"
        }
      ],
      "name": "GradeSystemTransferred",
      "type": "event"
    },
    {
      "inputs": [
        {
          "internalType": "uint256",
          "name": "_gradesystemId",
          "type": "uint256"
        }
      ],
      "name": "getGradeSystemDetails",
      "outputs": [
        {
          "components": [
            {
              "internalType": "string",
              "name": "lesson",
              "type": "string"
            },
            {
              "internalType": "string",
              "name": "student",
              "type": "string"
            },
            {
              "internalType": "string",
              "name": "studentnumber",
              "type": "string"
            },
            {
              "internalType": "string",
              "name": "grade",
              "type": "string"
            },
            {
              "internalType": "address",
              "name": "teacher",
              "type": "address"
            },
            {
              "internalType": "uint256",
              "name": "issueDate",
              "type": "uint256"
            }
          ],
          "internalType": "struct GradeNFT.GradeSystem",
          "name": "",
          "type": "tuple"
        }
      ],
      "stateMutability": "view",
      "type": "function"
    },
    {
      "inputs": [
        {
          "internalType": "address",
          "name": "_user",
          "type": "address"
        }
      ],
      "name": "getUserGradeSystem",
      "outputs": [
        {
          "internalType": "uint256[]",
          "name": "",
          "type": "uint256[]"
        }
      ],
      "stateMutability": "view",
      "type": "function"
    },
    {
      "inputs": [
        {
          "internalType": "address",
          "name": "",
          "type": "address"
        },
        {
          "internalType": "uint256",
          "name": "",
          "type": "uint256"
        }
      ],
      "name": "gradesystemnote",
      "outputs": [
        {
          "internalType": "uint256",
          "name": "",
          "type": "uint256"
        }
      ],
      "stateMutability": "view",
      "type": "function"
    },
    {
      "inputs": [
        {
          "internalType": "uint256",
          "name": "",
          "type": "uint256"
        }
      ],
      "name": "gradesystems",
      "outputs": [
        {
          "internalType": "string",
          "name": "lesson",
          "type": "string"
        },
        {
          "internalType": "string",
          "name": "student",
          "type": "string"
        },
        {
          "internalType": "string",
          "name": "studentnumber",
          "type": "string"
        },
        {
          "internalType": "string",
          "name": "grade",
          "type": "string"
        },
        {
          "internalType": "address",
          "name": "teacher",
          "type": "address"
        },
        {
          "internalType": "uint256",
          "name": "issueDate",
          "type": "uint256"
        }
      ],
      "stateMutability": "view",
      "type": "function"
    },
    {
      "inputs": [],
      "name": "gradesystemsCounter",
      "outputs": [
        {
          "internalType": "uint256",
          "name": "",
          "type": "uint256"
        }
      ],
      "stateMutability": "view",
      "type": "function"
    },
    {
      "inputs": [
        {
          "internalType": "string",
          "name": "_lesson",
          "type": "string"
        },
        {
          "internalType": "string",
          "name": "_student",
          "type": "string"
        },
        {
          "internalType": "string",
          "name": "_grade",
          "type": "string"
        },
        {
          "internalType": "string",
          "name": "_studentnumber",
          "type": "string"
        }
      ],
      "name": "issueGradeSystem",
      "outputs": [],
      "stateMutability": "nonpayable",
      "type": "function"
    },
    {
      "inputs": [],
      "name": "name",
      "outputs": [
        {
          "internalType": "string",
          "name": "",
          "type": "string"
        }
      ],
      "stateMutability": "view",
      "type": "function"
    },
    {
      "inputs": [],
      "name": "symbol",
      "outputs": [
        {
          "internalType": "string",
          "name": "",
          "type": "string"
        }
      ],
      "stateMutability": "view",
      "type": "function"
    },
    {
      "inputs": [
        {
          "internalType": "uint256",
          "name": "",
          "type": "uint256"
        }
      ],
      "name": "teacher",
      "outputs": [
        {
          "internalType": "address",
          "name": "",
          "type": "address"
        }
      ],
      "stateMutability": "view",
      "type": "function"
    },
    {
      "inputs": [
        {
          "internalType": "uint256",
          "name": "_gradesystemId",
          "type": "uint256"
        },
        {
          "internalType": "address",
          "name": "_to",
          "type": "address"
        }
      ],
      "name": "transferGradeSystem",
      "outputs": [],
      "stateMutability": "nonpayable",
      "type": "function"
    }
  ],
  "bytecode": "0x60806040526040518060400160405280600881526020017f47726164654e46540000000000000000000000000000000000000000000000008152506001908161004891906102f0565b506040518060400160405280600481526020017f434e4654000000000000000000000000000000000000000000000000000000008152506002908161008d91906102f0565b5034801561009a57600080fd5b506103c2565b600081519050919050565b7f4e487b7100000000000000000000000000000000000000000000000000000000600052604160045260246000fd5b7f4e487b7100000000000000000000000000000000000000000000000000000000600052602260045260246000fd5b6000600282049050600182168061012157607f821691505b602082108103610134576101336100da565b5b50919050565b60008190508160005260206000209050919050565b60006020601f8301049050919050565b600082821b905092915050565b60006008830261019c7fffffffffffffffffffffffffffffffffffffffffffffffffffffffffffffffff8261015f565b6101a6868361015f565b95508019841693508086168417925050509392505050565b6000819050919050565b6000819050919050565b60006101ed6101e86101e3846101be565b6101c8565b6101be565b9050919050565b6000819050919050565b610207836101d2565b61021b610213826101f4565b84845461016c565b825550505050565b600090565b610230610223565b61023b8184846101fe565b505050565b5b8181101561025f57610254600082610228565b600181019050610241565b5050565b601f8211156102a4576102758161013a565b61027e8461014f565b8101602085101561028d578190505b6102a16102998561014f565b830182610240565b50505b505050565b600082821c905092915050565b60006102c7600019846008026102a9565b1980831691505092915050565b60006102e083836102b6565b9150826002028217905092915050565b6102f9826100a0565b67ffffffffffffffff811115610312576103116100ab565b5b61031c8254610109565b610327828285610263565b600060209050601f83116001811461035a5760008415610348578287015190505b61035285826102d4565b8655506103ba565b601f1984166103688661013a565b60005b828110156103905784890151825560018201915060208501945060208101905061036b565b868310156103ad57848901516103a9601f8916826102b6565b8355505b6001600288020188555050505b505050505050565b611b2d806103d16000396000f3fe608060405234801561001057600080fd5b506004361061009e5760003560e01c806395d89b411161006657806395d89b41146101725780639837642b14610190578063b756114c146101c0578063c824e140146101de578063cc2644ac1461020e5761009e565b806306fdde03146100a35780631854dc8f146100c15780635699e2a9146100f6578063737c2445146101265780637bee7c7614610156575b600080fd5b6100ab61022a565b6040516100b89190610f68565b60405180910390f35b6100db60048036038101906100d69190610fd4565b6102b8565b6040516100ed96959493929190611051565b60405180910390f35b610110600480360381019061010b91906110fa565b610534565b60405161011d91906111e5565b60405180910390f35b610140600480360381019061013b9190611207565b6105cb565b60405161014d9190611247565b60405180910390f35b610170600480360381019061016b9190611397565b6105fc565b005b61017a61081d565b6040516101879190610f68565b60405180910390f35b6101aa60048036038101906101a59190610fd4565b6108ab565b6040516101b7919061146e565b60405180910390f35b6101c86108de565b6040516101d59190611247565b60405180910390f35b6101f860048036038101906101f39190610fd4565b6108e4565b6040516102059190611580565b60405180910390f35b610228600480360381019061022391906115a2565b610bb9565b005b6001805461023790611611565b80601f016020809104026020016040519081016040528092919081815260200182805461026390611611565b80156102b05780601f10610285576101008083540402835291602001916102b0565b820191906000526020600020905b81548152906001019060200180831161029357829003601f168201915b505050505081565b60036020528060005260406000206000915090508060000180546102db90611611565b80601f016020809104026020016040519081016040528092919081815260200182805461030790611611565b80156103545780601f1061032957610100808354040283529160200191610354565b820191906000526020600020905b81548152906001019060200180831161033757829003601f168201915b50505050509080600101805461036990611611565b80601f016020809104026020016040519081016040528092919081815260200182805461039590611611565b80156103e25780601f106103b7576101008083540402835291602001916103e2565b820191906000526020600020905b8154815290600101906020018083116103c557829003601f168201915b5050505050908060020180546103f790611611565b80601f016020809104026020016040519081016040528092919081815260200182805461042390611611565b80156104705780601f1061044557610100808354040283529160200191610470565b820191906000526020600020905b81548152906001019060200180831161045357829003601f168201915b50505050509080600301805461048590611611565b80601f01602080910402602001604051908101604052809291908181526020018280546104b190611611565b80156104fe5780601f106104d3576101008083540402835291602001916104fe565b820191906000526020600020905b8154815290600101906020018083116104e157829003601f168201915b5050505050908060040160009054906101000a900473ffffffffffffffffffffffffffffffffffffffff16908060050154905086565b6060600560008373ffffffffffffffffffffffffffffffffffffffff1673ffffffffffffffffffffffffffffffffffffffff1681526020019081526020016000208054806020026020016040519081016040528092919081815260200182805480156105bf57602002820191906000526020600020905b8154815260200190600101908083116105ab575b50505050509050919050565b600560205281600052604060002081815481106105e757600080fd5b90600052602060002001600091509150505481565b60008081548092919061060e90611671565b91905055506000805490506040518060c001604052808681526020018581526020018381526020018481526020013373ffffffffffffffffffffffffffffffffffffffff168152602001428152506003600083815260200190815260200160002060008201518160000190816106849190611865565b50602082015181600101908161069a9190611865565b5060408201518160020190816106b09190611865565b5060608201518160030190816106c69190611865565b5060808201518160040160006101000a81548173ffffffffffffffffffffffffffffffffffffffff021916908373ffffffffffffffffffffffffffffffffffffffff16021790555060a08201518160050155905050336004600083815260200190815260200160002060006101000a81548173ffffffffffffffffffffffffffffffffffffffff021916908373ffffffffffffffffffffffffffffffffffffffff160217905550600560003373ffffffffffffffffffffffffffffffffffffffff1673ffffffffffffffffffffffffffffffffffffffff1681526020019081526020016000208190806001815401808255809150506001900390600052602060002001600090919091909150557f08921141f8e2113d9f482a16006e39b3a9dc0f102c837ddcd3dcb5400536cede8133878786884260405161080e9796959493929190611937565b60405180910390a15050505050565b6002805461082a90611611565b80601f016020809104026020016040519081016040528092919081815260200182805461085690611611565b80156108a35780601f10610878576101008083540402835291602001916108a3565b820191906000526020600020905b81548152906001019060200180831161088657829003601f168201915b505050505081565b60046020528060005260406000206000915054906101000a900473ffffffffffffffffffffffffffffffffffffffff1681565b60005481565b6108ec610e8c565b600360008381526020019081526020016000206040518060c001604052908160008201805461091a90611611565b80601f016020809104026020016040519081016040528092919081815260200182805461094690611611565b80156109935780601f1061096857610100808354040283529160200191610993565b820191906000526020600020905b81548152906001019060200180831161097657829003601f168201915b505050505081526020016001820180546109ac90611611565b80601f01602080910402602001604051908101604052809291908181526020018280546109d890611611565b8015610a255780601f106109fa57610100808354040283529160200191610a25565b820191906000526020600020905b815481529060010190602001808311610a0857829003601f168201915b50505050508152602001600282018054610a3e90611611565b80601f0160208091040260200160405190810160405280929190818152602001828054610a6a90611611565b8015610ab75780601f10610a8c57610100808354040283529160200191610ab7565b820191906000526020600020905b815481529060010190602001808311610a9a57829003601f168201915b50505050508152602001600382018054610ad090611611565b80601f0160208091040260200160405190810160405280929190818152602001828054610afc90611611565b8015610b495780601f10610b1e57610100808354040283529160200191610b49565b820191906000526020600020905b815481529060010190602001808311610b2c57829003601f168201915b505050505081526020016004820160009054906101000a900473ffffffffffffffffffffffffffffffffffffffff1673ffffffffffffffffffffffffffffffffffffffff1673ffffffffffffffffffffffffffffffffffffffff1681526020016005820154815250509050919050565b813373ffffffffffffffffffffffffffffffffffffffff166004600083815260200190815260200160002060009054906101000a900473ffffffffffffffffffffffffffffffffffffffff1673ffffffffffffffffffffffffffffffffffffffff1614610c5b576040517f08c379a0000000000000000000000000000000000000000000000000000000008152600401610c5290611a0e565b60405180910390fd5b60006004600085815260200190815260200160002060009054906101000a900473ffffffffffffffffffffffffffffffffffffffff169050826004600086815260200190815260200160002060006101000a81548173ffffffffffffffffffffffffffffffffffffffff021916908373ffffffffffffffffffffffffffffffffffffffff1602179055506000600560008373ffffffffffffffffffffffffffffffffffffffff1673ffffffffffffffffffffffffffffffffffffffff168152602001908152602001600020905060005b8180549050811015610de35785828281548110610d4b57610d4a611a2e565b5b906000526020600020015403610dd6578160018380549050610d6d9190611a5d565b81548110610d7e57610d7d611a2e565b5b9060005260206000200154828281548110610d9c57610d9b611a2e565b5b906000526020600020018190555081805480610dbb57610dba611a91565b5b60019003818190600052602060002001600090559055610de3565b8080600101915050610d2b565b50600560008573ffffffffffffffffffffffffffffffffffffffff1673ffffffffffffffffffffffffffffffffffffffff1681526020019081526020016000208590806001815401808255809150506001900390600052602060002001600090919091909150557f42f4169d7a567473eb6191efca495214a1dfcea7b04545010e0d87d5ea646c90858386604051610e7d93929190611ac0565b60405180910390a15050505050565b6040518060c0016040528060608152602001606081526020016060815260200160608152602001600073ffffffffffffffffffffffffffffffffffffffff168152602001600081525090565b600081519050919050565b600082825260208201905092915050565b60005b83811015610f12578082015181840152602081019050610ef7565b60008484015250505050565b6000601f19601f8301169050919050565b6000610f3a82610ed8565b610f448185610ee3565b9350610f54818560208601610ef4565b610f5d81610f1e565b840191505092915050565b60006020820190508181036000830152610f828184610f2f565b905092915050565b6000604051905090565b600080fd5b600080fd5b6000819050919050565b610fb181610f9e565b8114610fbc57600080fd5b50565b600081359050610fce81610fa8565b92915050565b600060208284031215610fea57610fe9610f94565b5b6000610ff884828501610fbf565b91505092915050565b600073ffffffffffffffffffffffffffffffffffffffff82169050919050565b600061102c82611001565b9050919050565b61103c81611021565b82525050565b61104b81610f9e565b82525050565b600060c082019050818103600083015261106b8189610f2f565b9050818103602083015261107f8188610f2f565b905081810360408301526110938187610f2f565b905081810360608301526110a78186610f2f565b90506110b66080830185611033565b6110c360a0830184611042565b979650505050505050565b6110d781611021565b81146110e257600080fd5b50565b6000813590506110f4816110ce565b92915050565b6000602082840312156111105761110f610f94565b5b600061111e848285016110e5565b91505092915050565b600081519050919050565b600082825260208201905092915050565b6000819050602082019050919050565b61115c81610f9e565b82525050565b600061116e8383611153565b60208301905092915050565b6000602082019050919050565b600061119282611127565b61119c8185611132565b93506111a783611143565b8060005b838110156111d85781516111bf8882611162565b97506111ca8361117a565b9250506001810190506111ab565b5085935050505092915050565b600060208201905081810360008301526111ff8184611187565b905092915050565b6000806040838503121561121e5761121d610f94565b5b600061122c858286016110e5565b925050602061123d85828601610fbf565b9150509250929050565b600060208201905061125c6000830184611042565b92915050565b600080fd5b600080fd5b7f4e487b7100000000000000000000000000000000000000000000000000000000600052604160045260246000fd5b6112a482610f1e565b810181811067ffffffffffffffff821117156112c3576112c261126c565b5b80604052505050565b60006112d6610f8a565b90506112e2828261129b565b919050565b600067ffffffffffffffff8211156113025761130161126c565b5b61130b82610f1e565b9050602081019050919050565b82818337600083830152505050565b600061133a611335846112e7565b6112cc565b90508281526020810184848401111561135657611355611267565b5b611361848285611318565b509392505050565b600082601f83011261137e5761137d611262565b5b813561138e848260208601611327565b91505092915050565b600080600080608085870312156113b1576113b0610f94565b5b600085013567ffffffffffffffff8111156113cf576113ce610f99565b5b6113db87828801611369565b945050602085013567ffffffffffffffff8111156113fc576113fb610f99565b5b61140887828801611369565b935050604085013567ffffffffffffffff81111561142957611428610f99565b5b61143587828801611369565b925050606085013567ffffffffffffffff81111561145657611455610f99565b5b61146287828801611369565b91505092959194509250565b60006020820190506114836000830184611033565b92915050565b600082825260208201905092915050565b60006114a582610ed8565b6114af8185611489565b93506114bf818560208601610ef4565b6114c881610f1e565b840191505092915050565b6114dc81611021565b82525050565b600060c08301600083015184820360008601526114ff828261149a565b91505060208301518482036020860152611519828261149a565b91505060408301518482036040860152611533828261149a565b9150506060830151848203606086015261154d828261149a565b915050608083015161156260808601826114d3565b5060a083015161157560a0860182611153565b508091505092915050565b6000602082019050818103600083015261159a81846114e2565b905092915050565b600080604083850312156115b9576115b8610f94565b5b60006115c785828601610fbf565b92505060206115d8858286016110e5565b9150509250929050565b7f4e487b7100000000000000000000000000000000000000000000000000000000600052602260045260246000fd5b6000600282049050600182168061162957607f821691505b60208210810361163c5761163b6115e2565b5b50919050565b7f4e487b7100000000000000000000000000000000000000000000000000000000600052601160045260246000fd5b600061167c82610f9e565b91507fffffffffffffffffffffffffffffffffffffffffffffffffffffffffffffffff82036116ae576116ad611642565b5b600182019050919050565b60008190508160005260206000209050919050565b60006020601f8301049050919050565b600082821b905092915050565b60006008830261171b7fffffffffffffffffffffffffffffffffffffffffffffffffffffffffffffffff826116de565b61172586836116de565b95508019841693508086168417925050509392505050565b6000819050919050565b600061176261175d61175884610f9e565b61173d565b610f9e565b9050919050565b6000819050919050565b61177c83611747565b61179061178882611769565b8484546116eb565b825550505050565b600090565b6117a5611798565b6117b0818484611773565b505050565b5b818110156117d4576117c960008261179d565b6001810190506117b6565b5050565b601f821115611819576117ea816116b9565b6117f3846116ce565b81016020851015611802578190505b61181661180e856116ce565b8301826117b5565b50505b505050565b600082821c905092915050565b600061183c6000198460080261181e565b1980831691505092915050565b6000611855838361182b565b9150826002028217905092915050565b61186e82610ed8565b67ffffffffffffffff8111156118875761188661126c565b5b6118918254611611565b61189c8282856117d8565b600060209050601f8311600181146118cf57600084156118bd578287015190505b6118c78582611849565b86555061192f565b601f1984166118dd866116b9565b60005b82811015611905578489015182556001820191506020850194506020810190506118e0565b86831015611922578489015161191e601f89168261182b565b8355505b6001600288020188555050505b505050505050565b600060e08201905061194c600083018a611042565b6119596020830189611033565b818103604083015261196b8188610f2f565b9050818103606083015261197f8187610f2f565b905081810360808301526119938186610f2f565b905081810360a08301526119a78185610f2f565b90506119b660c0830184611042565b98975050505050505050565b7f596f7520646f206e6f74206f776e207468697320636572746966696361746500600082015250565b60006119f8601f83610ee3565b9150611a03826119c2565b602082019050919050565b60006020820190508181036000830152611a27816119eb565b9050919050565b7f4e487b7100000000000000000000000000000000000000000000000000000000600052603260045260246000fd5b6000611a6882610f9e565b9150611a7383610f9e565b9250828203905081811115611a8b57611a8a611642565b5b92915050565b7f4e487b7100000000000000000000000000000000000000000000000000000000600052603160045260246000fd5b6000606082019050611ad56000830186611042565b611ae26020830185611033565b611aef6040830184611033565b94935050505056fea26469706673582212205b799adafe657c247e2441cfc6b5d7d5c296d0d589069fc2bd8c63d6e48e488d64736f6c634300081c0033",
  "linkReferences": {},
  "deployedLinkReferences": {}
}